:020000040000FA
:1000000000000228E030AE000030AF008030000079
:100010000000A9200000000083120000B1002F089A
:10002000B000E230B2000030B300831200003008AC
:10003000B4003108B500FF30B007031CB103340829
:1000400035040319922804303207B400B501B50D08
:100050003308B5073408AE003508AF008030000023
:100060000000A9200000000083120000B7002F0844
:10007000B6003208AE003308AF0080300000000048
:10008000A9200000000083120000B900B5002F086D
:10009000B800B40002303207B400B501B50D330822
:1000A000B5073408AE003508AF008030000000000E
:1000B000A9200000000083120000B500BB002F083B
:1000C000B400BA00831200003608BA003708BB003B
:1000D000FF30B607031CB7033A083B0403198B280B
:1000E0003808AE003908AF008030000000009620CC
:1000F0000000000083120000BA003408840083135B
:10010000351883173A088000B80A0319B90AB40AE7
:100110000319B50A6228063083120000B2070318DB
:10012000B30A152800000000CA280800003A031985
:100130009D28803A0319A42800342E0884008313D4
:100140002F188317000808002F088A002E08820045
:100150000800003A0319B128803A0319BB28AF01FF
:1001600000342E08840083132F1883170008AF0073
:10017000840A0008080000000000A420AD00AE0FB3
:10018000AF03AF0A00000000A420AC002D08AF00B0
:100190002C0808008316850127303D02031DD22854
:1001A00010303C020318D828BC0A0319BD0ACC2819
:1001B000BC01BD01BE0A3E0883128500CC280800A0
:1001C00003340034F63400343E3400340134003457
:1001D000F43400343C34003402340034F734003456
:1001E0003F3400340134003400340034003400342F
:02400E00C431BB
:00000001FF
