:020000040000FA
:1000000000008A110A120428F330FE000030FF00BD
:1000100080308A110A12AB208A110A12831203134C
:10002000A1007F08A000F530A2000030A3008312D9
:1000300003132008A4002108A500FF30A007031C1B
:10004000A103240825040319942804302207A400DE
:10005000A501A50D2308A5072408FE002508FF001B
:1000600080308A110A12AB208A110A1283120313FC
:10007000A7007F08A6002208FE002308FF008030AA
:100080008A110A12AB208A110A1283120313A900E3
:10009000A5007F08A800A40002302207A400A50143
:1000A000A50D2308A5072408FE002508FF008030C1
:1000B0008A110A12AB208A110A1283120313A500B7
:1000C000AB007F08A400AA00831203132608AA002D
:1000D0002708AB00FF30A607031CA7032A082B0440
:1000E00003198D282808FE002908FF0080308A1196
:1000F0000A1298208A110A1283120313AA002408F4
:1001000084008313251883172A088000A80A03197E
:10011000A90AA40A0319A50A642806308312031346
:10012000A2070318A30A17288A110A12CC2808006C
:10013000003A03199F28803A0319A62800347E0844
:10014000840083137F188317000808007F088A0043
:100150007E0882000800003A0319B328803A031988
:10016000BD28FF0100347E08840083137F188317A5
:100170000008FF00840A000808008A110A12A6205D
:10018000FD00FE0FFF03FF0A8A110A12A620FC00E1
:100190007D08FF007C080800831603138701831283
:1001A0000313AE0183120313AC01AD012730831298
:1001B00003132D02031DDE2810302C020318E6283D
:1001C00083120313AC0A0319AD0AD6288312031352
:1001D000AC01AD0183120313AE0A2E088312031380
:1001E0008700D628080003340034093401342E3443
:1001F000003401340034073401342C340034023428
:1002000000340A3401342F34003401340034003413
:060210000034003400344C
:02400E00F42F8D
:02401000FF3F70
:00000001FF
